:10000000000404000000000012120000AA1000000A
:10001000CE100000F2100000161100003A1100008E
:100020001212000012120000121200001212000040
:10003000121200003212000082140000121200009E
:1000400012120000EA1200002C130000121200002D
:100050009A1400007C1300003214000012120000F9
:100060008A14000012120000121200001212000086
:1000700012120000121200001212000012120000F0
:1000800012120000121200001212000012120000E0
:100090001212000060130000121200001212000081
:1000A00012120000121200001212000012120000C0
:1000B00012120000121200001212000012120000B0
:1000C00012120000121200001212000012120000A0
:1000D0001212000012120000121200001212000090
:1000E0001212000012120000121200001212000080
:1000F0001212000012120000121200001212000070
:10010000121200001212000012120000121200005F
:10011000121200001212000012120000121200004F
:10012000121200001212000012120000121200003F
:10013000121200001212000012120000121200002F
:10014000121200001212000012120000121200001F
:10015000121200001212000012120000121200000F
:1001600012120000121200001212000012120000FF
:1001700012120000121200001212000012120000EF
:1001800012120000121200001212000012120000DF
:1001900012120000121200001212000012120000CF
:1001A00012120000121200001212000012120000BF
:1001B00012120000121200001212000012120000AF
:1001C000121200001212000012120000121200009F
:1001D000121200001212000012120000121200008F
:1001E000CA140000021500002C15000012120000B5
:1001F000121200001212000012120000121200006F
:10020800121200005E11000082110000A611000009
:10021800CA110000EE1100001212000012120000B4
:100228001212000012120000121200003212000016
:10023800821400001212000012120000EA120000DC
:100248002C130000121200009A1400007C13000006
:1002580032140000121200008A140000121200006A
:1002680012120000121200001212000012120000F6
:1002780012120000121200001212000012120000E6
:100288001212000012120000121200006013000087
:1002980012120000121200001212000012120000C6
:1002A80012120000121200001212000012120000B6
:1002B80012120000121200001212000012120000A6
:1002C8001212000012120000121200001212000096
:1002D8001212000012120000121200001212000086
:1002E8001212000012120000121200001212000076
:1002F8001212000012120000121200001212000066
:100308001212000012120000121200001212000055
:100318001212000012120000121200001212000045
:100328001212000012120000121200001212000035
:100338001212000012120000121200001212000025
:100348001212000012120000121200001212000015
:100358001212000012120000121200001212000005
:1003680012120000121200001212000012120000F5
:1003780012120000121200001212000012120000E5
:1003880012120000121200001212000012120000D5
:1003980012120000121200001212000012120000C5
:1003A80012120000121200001212000012120000B5
:1003B80012120000121200001212000012120000A5
:1003C8001212000012120000121200001212000095
:1003D8001212000012120000CA14000002150000D8
:1003E8002C15000012120000121200001212000058
:0803F8001212000012120000B5
:102000000A0000006FBF20000EBD22000E018800F4
:1020100000000000000020000000E000020032008C
:1020200000012000200288000C000700204F24003F
:102030000100200011000700000020000000E00067
:10204000020032000000020000000000E84502002B
:10205000000000000040DA000000FE004440A9003B
:10206000001C20000000E0000300320000002000FF
:10207000A00188004440A8000000060091018800EB
:10208000800078000000EB0015003700E28040007F
:1020900032A0B4009101BA00E280400032A0B40046
:1020A0009102BA00E280400032A0B4000002EB00CE
:1020B000472BDE00F507B200602CE10004003A0077
:1020C0000059EB008301E900FDFF3E0004003700EA
:1020D0006128E100010032000082EB000B000700E4
:1020E00011C3BA001101BA000604E00003003A006F
:1020F0000200E000E5FF3A0000000600F607B2002B
:102100009601880082007800F5FF37003159BA0047
:102110008301E9000C0032002159BA008301E90073
:10212000080032000400E00003003A00E2804000B2
:1021300032A0B400F5FF370011D9BA008301E900DD
:10214000FAFF3A008100E800E180400032A0B400CC
:1021500000000600809FBE00821F78000000FA0089
:102160008020A900201680004A00DE006140600047
:102170000004A200614060000080FB00610060007C
:102180004A00DD0022168000F1BF2F0081006100AF
:102190000100700020168800F2FF3700809FBE000B
:1021A000821F78000000FA008060A90020168000DD
:1021B0004A00DE00614060000004A200614060004F
:1021C0000080FB00610060004A00DD0022168000F4
:1021D000F1BF2F008100610001007000201688000F
:1021E000F2FF3700809FBE00821F78000000FA00D7
:1021F0008040A900201680004A00DE006140600097
:102200000004A200614060000080FB0061006000EB
:102210004A00DD0022168000F1BF2F00810061001E
:102220000100700020168800F2FF3700809FBE007A
:10223000821F78000000FA008080A900201680002C
:102240004A00DE00614060000004A20061406000BE
:102250000080FB00610060004A00DD002216800063
:10226000F1BF2F008100610001007000201688007E
:10227000F2FF3700809FBE00821F78000000FA0046
:1022800080A0A900201680004A00DE0061406000A6
:102290000004A200614060000080FB00610060005B
:1022A0004A00DD0022168000F1BF2F00810061008E
:1022B0000100700020168800F2FF3700809FBE00EA
:1022C000821F78000000FA008020A90020168000FC
:1022D0004A00DE00614060000004A200614060002E
:1022E0000080FB00610060004A00DD0022168000D3
:1022F000F1BF2F00810061000100700020168800EE
:10230000F2FF3700809FBE00821F78000000FA00B5
:102310008060A900201680004A00DE006140600055
:102320000004A200614060000080FB0061006000CA
:102330004A00DD0022168000F1BF2F0081006100FD
:102340000100700020168800F2FF3700809FBE0059
:10235000821F78000000FA008040A900201680004B
:102360004A00DE00614060000004A200614060009D
:102370000080FB00610060004A00DD002216800042
:10238000F1BF2F008100610001007000201688005D
:10239000F2FF3700809FBE00821F78000000FA0025
:1023A0008080A900201680004A00DE0061406000A5
:1023B0000004A200614060000080FB00610060003A
:1023C0004A00DD0022168000F1BF2F00810061006D
:1023D0000100700020168800F2FF3700809FBE00C9
:1023E000821F78000000FA0080A0A900201680005B
:1023F0004A00DE00614060000004A200614060000D
:102400000080FB00610060004A00DD0022168000B1
:10241000F1BF2F00810061000100700020168800CC
:10242000F2FF3700809FBE00821F78000000FA0094
:10243000E01680004F00DE00004078000004A2009B
:10244000614060000080FB004F00DD00E21680006C
:10245000F1FF27008100610001007000E016880094
:10246000F3FF3700809FBE00821F78000000FA0053
:102470008460A9006145800010C0B300E88F50005F
:1024800001003E000040EB008100E800614588004B
:102490000004E00048003200AC28EF00C045800096
:1024A0000000E800C0458800304780000000E800D8
:1024B00030478800704780000000E80070478800BF
:1024C000804580000000E80080458800904580003D
:1024D0000000E80090458800504680000000E800B9
:1024E00050468800E04180000000E800E04188009C
:1024F000004780000000E80000478800F0448000AA
:102500000000E800F0448800F0448000E20F500032
:1025100001003600DC68EF00304580000000E80074
:1025200030458800404580000000E80040458800B4
:10253000404480005144800061004000E080480039
:102540004044880051448800C04480000000E800F6
:10255000C0448800B04380000000E800B043880019
:10256000404780000000E8004047880000458000A8
:102570000000E80000458800104780000000E800E7
:1025800010478800201680004900DE00614060008E
:102590000004A200614060000080FB006100600058
:1025A0004900DD0022168000F1DF2F00810061006C
:1025B0000100700020168800104580000000E8002F
:1025C000104588000080FA004F0178004F00BE00DF
:1025D00000400600809FBE00829FBE00849FBE0018
:1025E000869FBE000000FA0084E0A90052E8A9001E
:1025F000CD82A900A08520003002BE002003BE00CD
:1026000010002000010020006011B800000042000E
:1026100081804A0002014B0083814B00A485200089
:10262000009ABE000292BE0011E1A90013E1A900C8
:102630008500A90023E4A900E422A9007628EF0080
:102640000080FA004F03BE004F02BE004F01BE00E3
:102650004F00BE0000400600809FBE000000FA0050
:102660008500A900914280000008200000806000E1
:102670000000E0000700320052E8A900C0428000DC
:10268000700888000A21EF0023E4A900E422A900D1
:102690000800370052E8A80023E4A800B0428000F8
:1026A000700888000A21EF001421EF008760A9005C
:1026B0001FE1A8000080FA004F00BE0000400600A5
:1026C000809FBE000000FA008760A9009142800050
:1026D00000082000008060000000E00002003200DE
:1026E0000BA3A800010037001FE1A9000080FA0039
:1026F0004F00BE0000400600809FBE00829FBE00CB
:102700000000FA008560A900DCC8BF008080FB00E3
:102710003211800082417800C28F200003F17800DE
:102720000040E800DCE8B7009E28EF00DCC8BF00EE
:10273000E14F500007003A00C08F20009040780021
:1027400050C5B30080CF500042003200DC68EF007B
:1027500040003700DCC8BF00E24F50000B003A00D9
:10276000D08F20009040780000C9B30080CF500087
:1027700004003A00D08F2000104078009AE8B7009B
:1027800034003700DC68EF0032003700DCC8BF00DF
:10279000E64F500012003A00E08F20009040780091
:1027A0009AC8BF0080C04000F08F20001040780021
:1027B00080C04000009020001040780000C0400021
:1027C0009AE8B70010902000904078009AC8BF00A7
:1027D00080CF50001F003200DC68EF001D00370082
:1027E000DCC8BF00E74F500006003A0020902000F0
:1027F000104078000080FB0068004000E044880042
:1028000014003700DCC8BF008080FB00E04480007B
:10281000808F50000F003A00D208A800E228EF0095
:10282000601680004D00DE00614060000004A200E0
:10283000614060000080FB00610060004D00DD0031
:1028400062168000F1FF2D00810061000100700020
:10285000601688000080FA004F01BE004F00BE00E5
:1028600000400600809FBE000000FA008580A9009D
:10287000DDC8BF000040E800DDE8B7000000000050
:102880001111800000102000008060000000E000B6
:10289000FBFF3200DDC8BF008080FB00F0468000F7
:1028A000808F500008003A000000000011118000E5
:1028B00000102000008060000000E000FBFF3200FC
:1028C000C4A2A9000C003700000000001111800014
:1028D00000102000008060000000E000FBFF3200DC
:1028E000DDC8BF000080FB00C19F20006140780070
:1028F0000080FB00201188000080FA004F00BE001D
:10290000004006000000FA008480A9000080FA0060
:10291000004006000000FA0085C0A9009540A9000B
:10292000D248A800F502A800F442A9000080FA00ED
:1029300000400600801F78000000FA008540A900D2
:10294000C0438000E10F500003003200E20F50004E
:10295000070032000C003700F502A800000000005C
:102960000000000000000000F502A900060037008A
:10297000F502A800000000000000000000000000B8
:10298000F502A900000000000080FA004F00780066
:1029900000400600809FBE00829FBE000000FA003B
:1029A00060478000021A800080014000C1BE200004
:1029B00081804100820878000000E80060478800BC
:1029C00000408000121A80008001400021BE2000DB
:1029D00081804100820878000000E8000040880003
:1029E00091C0A90060478000E40F500001003E0044
:1029F0000AA3A8000080FA004F01BE004F00BE00ED
:102A000000400600809FBE00821F78000000FA0090
:102A100050458000211A80000001400040BC200089
:102A2000000041000108780050458000311A800004
:102A300000014000E0BC20000000410001087800D7
:102A400091E0A9000CA3A8000080FA004F017800D3
:102A50004F00BE0000400600809FBE00829FBE0067
:102A60000000FA0050458000411A8000000140003B
:102A700080BD200000004100010878005045800022
:102A8000521A80008001400081BD200081804100F9
:102A9000820878000000E800504588009200A900F4
:102AA00050458000E40F500002003E000BA3A80038
:102AB00001003700D4E8A8000080FA004F01BE00F2
:102AC0004F00BE000040060003F0A200889FBE0039
:102AD0008A9FBE008C1F7800180107001F01330079
:102AE0006450E1004F0032006420E10052003200E7
:102AF00003826C0007003B000905D0000306D000EC
:102B0000820F54000C065D00020039000200320002
:102B100089017800030678008582550004003D0095
:102B20000003FD008103FD008502EA008B85420061
:102B3000840F720002003B0060001000E08018006B
:102B40006011B8000005EB007A28E1000A003900A6
:102B500006007800C75DDD00F707B20087807500CA
:102B60002D003700828171000A0178006105600044
:102B70008180D1000080D3008502E900F9FF3B008D
:102B8000060440008784480002003B0060041400F3
:102B9000E0841C000988A300070032008A817100CC
:102BA00082817100610164008904D1000884D3002E
:102BB0008B05E800170037000978A30013003A00DE
:102BC0000B00E000130034008B05E900080444000A
:102BD00089844C000A4474000978A3000D003A006F
:102BE0000B00E000070034008B05E90008044400F6
:102BF00089844C0001003A000B0020000978A300F2
:102C0000F7FF32000001EB00020037008281710003
:102C10000A0178008E0007000CF0A70001F0A00068
:102C2000D70037006420E10002003A00838F6C0077
:102C3000D70033000801BE000200BE00D0003700FC
:102C4000889FBE008A9FBE008C1F7800BB000700D3
:102C5000C200330003866C006450E1002E00320095
:102C60006420E100330032006150E1002F003200A7
:102C70006120E1003100320085855500EB07B0008E
:102C80000900200008042000050037000804440063
:102C900089844C000A0031000603430087834B00FF
:102CA0000001530081815B00F8FF33000203BE0086
:102CB0000800A0000804440089844C00F6FF390095
:102CC000C639DD00830173000100320013002000CB
:102CD0008904D1000884D3000998A30005003200BC
:102CE0000800A7000300A0008904D1000884D300D5
:102CF0008B05E8008904D1000884D3000001EB00B3
:102D00000281D2005200070001F0A1000CF0A700E0
:102D100001F0A0009A0037006420E1009C0032001E
:102D20000801BE000200BE00F7FF37006120E1008D
:102D3000970032006000B800F3FF37000000200069
:102D400001F82700F0FF370014002000D7003700FB
:102D5000F4FF2F00D50037000001BE00620007001D
:102D60000470A70003F0A1006509B100160032004D
:102D70000D0035006828E10006003500F0FF2F0047
:102D8000F1FF27000300E00013003B0001002800D2
:102D90000000050000004000818048008502E90035
:102DA000FCFF3A0008003700F88F420002003C00A8
:102DB0008000EB00000005008100D1000080D300FE
:102DC0008502E800FCFF3A000300E00002003B003F
:102DD00060001000E0801800000006000001BE0046
:102DE000410007000470A70003F0A10003F8A3004E
:102DF00013003A006509B1001000320009003500E7
:102E00006928E100020035000100280000000500EB
:102E100000004000818048008502E900FCFF3A0084
:102E200000000600F88F4200050035008100D10047
:102E30000080D3008502E800FCFF3A000000060095
:102E40008000EB00000005006011B800B200370000
:102E500081002000618055000B003D000B00200028
:102E600061FE2F000100E1001D003400828171002D
:102E7000610164008904D1000884D3000000E800E7
:102E8000FAFF3A0071002000610064000300700046
:102E9000020060000900320061044400E0844C003C
:102EA0000988A500050032008B05E8006808E100EC
:102EB00002003A008904D1000884D300F20F2000F8
:102EC0000258E10005003D00C75DDD00F907B200D2
:102ED0008980750008007800000006000BF82700C4
:102EE0008B00780000000500C70ADE00F107B20081
:102EF000F50FB20008003200E1CF420002003200BC
:102F00000170A00024000500810F70000100320054
:102F10000408050044000500810F700002003A001B
:102F2000140005008502E9000000400081C048004F
:102F3000FCFF3B000170A000240005000004BE005F
:102F4000E9FF07000003BE000405BE000200BE004A
:102F5000E5FF0700844F7500000006000200BE0078
:102F60006450E100050036006420E10002003600F4
:102F70000968A30001003A000800BE000160A0003B
:102F80004F0678004F05BE004F04BE00000006004B
:102F9000F0FF2F00F1FF2700F9FF3700889FBE00E8
:102FA0008A9FBE008C1F7800E4FF0700EBFF330010
:102FB00003866C006450E100240032006420E100CC
:102FC000270032006150E100220032006120E10060
:102FD000210032008B854200EB07B1000134B800BC
:102FE000003AB8000804420089844A00013AB80057
:102FF0000030B8008880400009014A000400330016
:103000000000400081804800020149008B05E90072
:10301000C909DD00830170000100320013002000A7
:10302000C814DE004814DD004709DE001200B200BB
:10303000C808DE000884700085FF070001F0A100C9
:103040000CF0A70001F0A000CDFF37006120E100E7
:10305000CFFF32000801BE000200BE00F7FF3700BC
:103060006150E100FCFF3A00C9FF37006022B80060
:10307000060220000000D0008180D2000482D2002D
:103080008582D2000000A0000202520083825A0012
:10309000030031000202420083824A000000A100C6
:1030A0000603E900F3FF3A0000000600889FBE0017
:1030B0008A9FBE00841F7800A0FF07004F007800A1
:1030C00011003300F0FF2F00838F6C0006003B00DF
:1030D000040565000A00A7000800370009F0A600F3
:1030E0001000200008003700820F5400838F5C001E
:1030F000030039001000200001003E000000200005
:1031000009F0A7000000EA004F05BE004F04BE0012
:103110000000E00000000600889FBE008A9FBE00FD
:1031200000827000040271000482710026003200E7
:103130000004BE000200BE006011B8006B09200050
:10314000950220000182CF000A0039000541B1003C
:103150000082CF00070039000541B1000982CF008D
:10316000040039000541B1000882CF000100390098
:103170000541B10005425200120032000A003B0036
:1031800082817100610164008100D1000080D30060
:103190008984D3000884D3008B05E8000442E8004A
:1031A000F7FF3A00070037000804440089844C0008
:1031B00000004800818048008B05E9000442E900D6
:1031C000F9FF3A0022FF07004F05BE004F04BE0082
:1031D0000000060000000000C8C1000000B60000AA
:1031E000FD4700000000000020C1000000B2000008
:1031F000574700000000000010C1000000940000CC
:103200004D4700000000000000C1000000760000F3
:103210004347000000000000E0C00000005800002C
:103220003947000000000000C0C00000003A000064
:103230002F47000000000000A0C00000001C00009C
:10324000254700000000000080C00000009300003F
:103250001D4700000000000040C00000000A000000
:10326000164700000000000000C0000000810000C0
:103270000E4700000000000080BF000000F90000C1
:1032800006470000000000000000000000E0000011
:10329000FE46000000000000803F0000008E00009D
:1032A000F34600000000000000400000003E000067
:1032B000E8460000000000004040000000EC000074
:1032C000DC4600000000000080400000009A000082
:1032D000D146000000000000A0400000004A0000AD
:1032E000C646000000000000C040000000B800001A
:1032F000BD46000000000000E04000000026000085
:10330000B5460000000000000041000000940000ED
:10331000AC46000000000000104100000004000066
:10332000A4460000000000002041000000720000E0
:103330009B460000000000003041000000E8000053
:10334000944600000000000040410000005C0000C6
:103350008E460000000000005041000000D2000036
:1033600087460000000000006041000000480000A7
:10337000814600000000000070410000007C000059
:10338000754600000000000080410000006C000055
:103390006B46000000000000884100000060000053
:1033A0006146000000000000904100000050000055
:1033B0005746000000000000984100000040000057
:1033C0004D46000000000000A04100000034000055
:1033D0004346000000000000A84100000068000013
:1033E0003B46000000000000B041000000A00000CB
:1033F0003346000000000000B841000000D4000087
:103400002B46000000000000C04100000008000042
:103410002446000000000000C841000000400000F9
:103420001C46000000000000D0410000002C0000FD
:103430001646000000000000D841000000180000FF
:103440001046000000000000E04100000004000001
:103450000A46000000000000E841000000F40000FF
:103460000346000000000000F041000000C0000022
:10347000FB45000000000000F8410000003800009B
:10348000F2450000000000000042000000A800001B
:10349000E845000000000000044200000020000099
:1034A000DF45000000000000084200000098000016
:1034B000D5450000000000000C4200000010000094
:1034C000CC45000000000000104200000088000011
:1034D000C4450000000000001442000000F8000095
:1034E000BC45000000000000184200000070000011
:1034F000B5450000000000001C42000000E800008C
:10350000AD45000000000000204200000060000007
:10351000A6450000000000003442000000680000E2
:1035200088450000000000004842000000F0000054
:103530006045000000000000704200000030000004
:103540001B45000000000000C84200000080000091
:10355000284400000A00FA00889FBE008A9FBE002F
:103560006000B8006011B8001007980021079800AB
:10357000320798004307980091428000000820001D
:10358000008060000000E0002B023A0091428000C1
:1035900000202000008060000000E00005003200F4
:1035A000A146800000202000008060000000E000B4
:1035B000070032003228EF00D268A900D528A90000
:1035C000D548A900D568A900D4A8A900D4C8A900E5
:1035D00090418000E40F50001B013200E40F5000C6
:1035E00009003E00E10F500067003200E10F50007B
:1035F00011003900E20F500021003200E30F5000AB
:10360000BA0032000C023700E70F5000E60132002A
:10361000E70F500003003E00E50F5000BE013200EE
:1036200005023700E80F5000D1003200E90F5000CA
:103630007500320000023700914280000020200017
:10364000008060000000E000E8013200250407006F
:103650000004E00003003A002000200090418800B0
:10366000F5013700D268A9005308A800F000200037
:10367000C047880070022000A0428800EE01370099
:10368000180407000004E0003B003A003E28EF0069
:103690004228EF004028EF00600307000000E00030
:1036A0000E0032000000EB00000F7800070037002A
:1036B000C0B920001E0040009040780040BA2000B1
:1036C0001E004000014878001E0FE8001E00780030
:1036D000E70F5000F6FF3600D4A8A800A0468000EF
:1036E000700060000000E000120032004B03070091
:1036F0000000E0000F0032000000EB00000F780037
:1037000008003700C0B920001E004000904078003B
:1037100040BA20001E0040006800400001487800C8
:103720001E0FE8001E007800E70F5000F5FF36007E
:10373000D4C8A800A14680000002200000806000DC
:103740000000E00005003A00A146800000042000CF
:10375000008060000000E000030032001000200044
:1037600090418800B40137003228EF00D4A8A900A6
:10377000D4C8A900B00137003228EF00D4A8A900AE
:10378000D4C8A900AC013700A14680000002200087
:10379000008060000000E00096013200D1030700C5
:1037A0000004E00014003A0050C5B300FE03070017
:1037B0005028EF000000EB00000F780007003700F2
:1037C000804280004300DD001E00400041BA20001E
:1037D00061407800F40307001E0FE8001E00780027
:1037E000E70F5000F6FF3600970107009000200019
:1037F00090418800900137003228EF00D4A8A9003A
:10380000D4C8A9008C013700A14680000004200024
:10381000008060000000E0001A003200B1030700E1
:103820000004E00013003A0050C5B300DE030700B7
:1038300010002000804288000000EB00000F78009C
:1038400007003700804280004300DD001E0040007A
:1038500041BA200061407800D30307001E0FE80042
:103860001E007800E70F5000F6FF360076010700D3
:103870000D0037003228EF00D4A8A900D4C8A90051
:1038800009003700D548A900D568A900D268A90069
:103890005308A800F0002000C04788006002200004
:1038A000A04288003228EF00A146800000022000DC
:1038B000008060000000E00050013200A14680005E
:1038C00000042000008060000000E0004D01320094
:1038D000A1428000B0022000808F50004B013200D6
:1038E000300020009041880053013700A14680003D
:1038F00000802000008060000000E0001200320024
:10390000A146800000402000008060000000E00030
:1039100003003200800020009041880046013700FB
:10392000D548A900D568A900D268A9005308A80005
:10393000F0002000C0478800B0022000A0428800AC
:103940003228EF003C013700D548A900D568A9000E
:10395000D268A9005308A800F0002000C0478800E2
:1039600030022000A04288003228EF0032013700E8
:103970009142800000202000008060000000E000F4
:103980002F003200A08520003004BE002005BE00BC
:10399000408320005001BE004000BE0000025400E1
:1039A00081825C0002035D0083835D00300620009D
:1039B000010020006011B8000020E10001A8E10032
:1039C00002B0E10003B8E10006003600B045800017
:1039D0000000E0000F013A00400020009041880004
:1039E00015013700E141800000A62E00808F5000B5
:1039F0000A013600A08520003002BE002003BE0070
:103A0000408320005001BE004000BE000020E100C5
:103A100001A8E10002B0E10003B8E10006003600B1
:103A2000B04580000000E000FE003A0040002000A9
:103A300090418800000137003C28EF00FE0037006D
:103A40003228EF00FC003700260307000004E000E6
:103A500049003A0050C5B300530307000000EB00D3
:103A6000000F78000500370040BB20001E0040001A
:103A7000104078004C0307001E0FE8001E0078007D
:103A8000E70F5000F8FF3600F0C0B3004603070010
:103A900080C7B300440307000040EB004203070067
:103AA000A08520005001BE004000BE004818DE0086
:103AB000004078003C030700A08520005001BE00B4
:103AC0004000BE0003007800004078003603070085
:103AD000A08520005001BE004000BE004810DE005E
:103AE000481ADD0000007200004078002E03070035
:103AF000A08520005001BE004000BE0002007800FA
:103B00000040780028030700A08520005001BE0077
:103B10004000BE004808DE004812DD0000007200D0
:103B20000040780020030700A08520005001BE005F
:103B30004000BE0001007800004078001A03070032
:103B4000A08520005001BE004000BE004800DE00FD
:103B5000480ADD00000072000040780012030700F0
:103B6000A08520005001BE004000BE00004078004B
:103B70000D03070003003700504280000000E800FA
:103B8000504288006000B8006011B800100798002B
:103B9000210798003207980043079800D1020700D8
:103BA0000004E00054003A0050C5B300FE020700D4
:103BB0000000EB00000F78000500370040BB20003C
:103BC0001E00400010407800F70207001E0FE800BA
:103BD0001E007800E70F5000F8FF3600A0CAB300BF
:103BE000F1020700020307004CE8B70000030700DA
:103BF0004DE8B700FE0207004EE8B7000000EB00FA
:103C0000000F7800230037001E009000AE009000E7
:103C10003E019000CE019000C819DD004812DE0080
:103C2000830172004811DD00480ADE0002017200C3
:103C3000C808DD004802DE00810072004800DD0097
:103C40001007980021079800320798004307980052
:103C5000E70207000080FB008000EB006011B80065
:103C60001E029000AE0290003E039000CE03900032
:103C70000000420081804A0002014B0083814B001A
:103C80001007980021079800320798004307980012
:103C90001E0FE8001E007800E70F5000DAFF360024
:103CA000A08520005001BE004000BE001E02900012
:103CB000AE0290003E039000CE0390000020E10091
:103CC00001A8E10002B0E10003B8E10003003A00FE
:103CD0004EC8BF00E74F5000040032005042800041
:103CE0000000E80050428800060037005000200025
:103CF0009041880003003700504280000000E80037
:103D00005042880050428000E30F500047003600C8
:103D10003228EF0048003700720207000004E0007C
:103D20001F003A0050C5B3009F0207000000EB00DF
:103D3000000F78000500370040BB20001E00400047
:103D400010407800980207001E0FE8001E0078005F
:103D5000E70F5000F8FF360050C5B300920207008D
:103D60004CC8BF00900207004DC8BF008E0207007C
:103D70004EC8BF008C0207007000200090418800F0
:103D80003C28EF00A08520005001BE004000BE008E
:103D900044832000009ABE000292BE002600370035
:103DA0003228EF0024003700E0418000EA0F500085
:103DB000200036008E020700A1CAB300814F5000D8
:103DC00004003A004702070080002000904188006C
:103DD00019003700504280000000E800504288007F
:103DE00040002000904188001300370000000000D0
:103DF00011003700000000000F0037000000000035
:103E00000D003700000000000B003700000000002C
:103E10000900370000000000070037000000000024
:103E2000050037000000000003003700000000001C
:103E300001003700000000004F05BE004F04BE0027
:103E40000080FA00000006000400FA00B04680007E
:103E5000EF0F500008003A00A1428000B00220009D
:103E6000808F500004003A005308A8001000200082
:103E7000C04788005428EF0000CFB3004A02070073
:103E80000040EB00480207000040EB00460207003C
:103E90000000EB00000F7800050037005402070017
:103EA000C1AF20009E804000804878001E0FE800CF
:103EB000F00720009E007800808F5000F7FF36004A
:103EC000D0B1200010407800F04F500012013A00AD
:103ED0000000EB00000F78000900370080428000EE
:103EE0004300DD001E00400041BA2000E1407800A0
:103EF00040BB20001E004000014878001E0FE80073
:103F00001E007800E70F5000F4FF360040B7200095
:103F1000104078000080FB008000EB006011B800CA
:103F2000A4852000009ABE000292BE00A085200059
:103F30005001BE004000BE00C819DD004812DE007E
:103F4000830172004811DD00480ADE0002017200A0
:103F5000C808DD004802DE00810072004800DD0074
:103F6000A4852000009ABE000292BE0050B7200037
:103F7000104078000082FB008002EB006033B80044
:103F8000A08520005001BE004000BE00000042009D
:103F900081804A0002014B0083814B00A4852000F0
:103FA000009ABE000292BE00A08520005001BE0013
:103FB0004000BE00C819DD004812DE008301720017
:103FC0004811DD00480ADE0002017200C808DD0069
:103FD0004802DE00810072004800DD00A485200058
:103FE000009ABE000292BE0060B720001040780028
:103FF0000082FB008002EB006033B800A085200047
:104000005001BE004000BE000000420081804A0016
:1040100002014B0083814B00A4852000009ABE0062
:104020000292BE00A08520005001BE004000BE00EC
:10403000C819DD004812DE00830172004811DD005E
:10404000480ADE0002017200C808DD004802DE00F6
:10405000810072004800DD00A4852000009ABE00A7
:104060000292BE0070B72000104078000082FB0072
:104070008002EB006033B800A08520005001BE0034
:104080004000BE000000420081804A0002014B0057
:1040900083814B00A4852000009ABE000292BE00DE
:1040A000A08520005001BE004000BE00C819DD0000
:1040B0004812DE00830172004811DD00480ADE006C
:1040C00002017200C808DD004802DE0081007200B3
:1040D0004800DD00A4852000009ABE000292BE00C8
:1040E00080B72000104078000082FB008002EB00C7
:1040F0006033B800A08520005001BE004000BE0023
:104100000000420081804A0002014B0083814B0085
:10411000A4852000009ABE000292BE00A085200067
:104120005001BE004000BE00C819DD004812DE008C
:10413000830172004811DD00480ADE0002017200AE
:10414000C808DD004802DE00810072004800DD0082
:10415000A4852000009ABE000292BE0090B7200005
:10416000104078000082FB008002EB006033B80052
:10417000A08520005001BE004000BE0000004200AB
:1041800081804A0002014B0083814B00A4852000FE
:10419000009ABE000292BE00A08520005001BE0021
:1041A0004000BE00C819DD004812DE008301720025
:1041B0004811DD00480ADE0002017200C808DD0077
:1041C0004802DE00810072004800DD00A485200066
:1041D000009ABE000292BE00A0B7200010407800F6
:1041E0000082FB008002EB006033B800A085200055
:1041F0005001BE004000BE000000420081804A0025
:1042000002014B0083814B00A4852000009ABE0070
:104210000292BE00A08520005001BE004000BE00FA
:10422000C819DD004812DE00830172004811DD006C
:10423000480ADE0002017200C808DD004802DE0004
:10424000810072004800DD00A4852000009ABE00B5
:104250000292BE00B0B72000104078000082FB0040
:104260008002EB006033B800A08520005001BE0042
:104270004000BE000000420081804A0002014B0065
:1042800083814B00A4852000009ABE000292BE00EC
:10429000A08520005001BE004000BE0044832000E5
:1042A000009ABE000292BE000000EB00000F7800F2
:1042B0000D003700C0AF20001E0040009040780085
:1042C000C0B720001E00400001487800C0B72000A1
:1042D0001E00400010407800AE40900000C040003A
:1042E000204798001E0FE8001E007800FF0F5000C6
:1042F000F0FF3600C0B12000904078002E409000C2
:1043000080CF500002003A00D568A8004100370075
:10431000D568A9003F003700C0AF2000904078006A
:1043200000C2B30080CF50000A003200C0AF2000AE
:104330009040780000C4B30080CF500005003200E8
:10434000C0AF20009040780000C3B30080CF500081
:104350002B003A00C0AF2000104078000080FB0026
:10436000304388000000EB00000F780009003700A0
:10437000804280004300DD001E00400041BA200062
:10438000E1407800C0BB20001E00400001487800DA
:104390001E0FE8001E007800E70F5000F4FF360003
:1043A00060B02000104078000080FB008000EB002F
:1043B000104388002143880010438000214380007F
:1043C000C000DD0000002000104388002143880069
:1043D00070B02000104078000081FB008001EB00ED
:1043E0001043800021438000020040008380480089
:1043F0001043880021438800D548A80005003700F5
:10440000C0AF2000104078000004E00001003A0036
:10441000D548A9000080FA00000006000E00FA004E
:1044200010002000000F78000000EB00100798003B
:104430000000EB002007980010C0B300004F980068
:104440000000EB00300798004468EF001042800045
:104450000000E00079003A00A20007000004E0003C
:10446000050032003E28EF004228EF004028EF0010
:104470000000EB007E00370000CFB300CA00070049
:10448000BB0007000080FB0050079800B800070041
:104490000080FB00600798005E009000E10F500074
:1044A00003003A006E009000E10F5000530032000C
:1044B000DE0090006E009000808F500003003200FC
:1044C0005E009000104F980020003700F0418000FF
:1044D0009E007800808F50000B003100C1B9200091
:1044E0002E00900000804000904078000E48900020
:1044F00000C060000080FB000000EA004F00DE000A
:10450000104F980007003700F04180001E0068003F
:1045100000F0A7000000EA000000E9004F00DE0004
:10452000104F98001E4890000004E00007003A0079
:104530009E007800110798001E009000E80F5000C0
:1045400002003E009E009000014288001E4890003C
:10455000E14F50000B003A00C1B920002E0090003E
:1045600000804000904078000E48900080C07000AD
:10457000C2B920002E0090000000410001487800E0
:104580000D003700C1B920002E00900000804000CF
:1045900010407800804078000E48900000C0EA008B
:1045A00000C0600080407800C2B920002E0090005A
:1045B00000004100014878001E48900058000700A4
:1045C0001E0FE8000E48900000404000004F980089
:1045D0000E4890000004E00005003A002E00900014
:1045E0000000E8002007980010C0B300004F9800BA
:1045F0002E009000E70F5000A1FF360000042000BD
:104600009E007800808F50000C00360044C8BF0028
:104610000004E00009003A009E009000F14188008B
:10462000F04180000000E00002003A00100020008D
:104630001042880010002000300798003E009000D3
:104640000000E00004003200C0B9200010407800F3
:104650000004E00005003A003E28EF004228EF0089
:104660004028EF000000EB00300798003E0090006B
:104670000080FA00000006000000FA00F4E2A90041
:10468000F0E2A9000080FA00000006000000FA0035
:10469000F4E2A900F0E2A8000080FA0000000600A1
:1046A0000200FA000040EB00004F7800F0E2A800A2
:1046B0009117800000082000008060000000E000EA
:1046C0000300320010C0B300004F78000200370032
:1046D0000040EB00004F78001E4078000080FA0098
:1046E000000006000200FA00E3FF0700001E2000A1
:1046F00057000700E5FF0700600420005400070092
:10470000E7FF0700004F7800A019200050000700C5
:10471000DEFF07001E4078000080FA00000006005F
:104720000200FA00004F78001E4078000004E0000C
:1047300007003200D0FF070060002000440007009F
:10474000D2FF0700000420004100070006003700E8
:10475000C9FF0700C00320003D000700CBFF070092
:10476000A00020003A0007000080FA0000000600C8
:104770000200FA00C0FF07006000200034000700BC
:10478000C2FF07009000200031000700C4FF0700AF
:10479000004F7800700320002D0007001E407800B5
:1047A0000080FA00000006000400FA00204798008C
:1047B0000040EB00004F7800080037002E409000CA
:1047C00061406000D6FF07002E4090000080FB0093
:1047D0000000D100204798001E4FE8001E407800DE
:1047E000E74F5000F5FF36000080FA000000060099
:1047F0000200FA000040EB00104798000040EB0078
:10480000004F78000C0037001E4090000080FB0035
:104810000000D10010479800D5FF07000004E00019
:10482000040032009E40900000C8B30000C0700039
:10483000104798001E4FE8001E407800E74F5000D8
:10484000F1FF36001E4090000080FA0000000600D4
:104850000200FA00000F78008780A9001821EF00FD
:104860009E007800800220000088B90000007800D7
:10487000E008880021E1A800000000003104800069
:1048800000002100008060000000E000FBFF32001B
:1048900021E1A9000080FA00000006000E00FA00E5
:1048A0000040EB00604798000000EB00000F78002C
:1048B0006000B80010079800210798001E009000C3
:1048C000AE0090008100D1000080D3001007980056
:1048D00021079800000020000100200050079800E8
:1048E00061079800250037000060FE004E489000E8
:1048F00032E0B7005E0090001000BA004007980058
:104900004E009000604798006E4090000080FB00D1
:104910001E0F40004E0090004880DE006047980067
:104920006E4090000080FB001E0F40005E00900073
:104930001080BA00400798004E0090006047980031
:104940006E4090000080FB001E0F40005E00900053
:10495000EE00900062004000E080480050079800A0
:10496000610798001E009000AE00900062004000B9
:10497000E080480010079800210798001E01900071
:10498000AE019000E01F200001002000800F5100C8
:10499000818F5900D4FF3600130037000060FE00FD
:1049A000F10F20001E8F4000F10F20001E8F4000ED
:1049B000F10F20001E8F40005E009000EE0090007E
:1049C00062004000E08048005007980061079800AE
:1049D0001E009000AE00900062004000E0804800A1
:1049E00010079800210798001E019000AE0190006A
:1049F000E0FF200001002000800F5100818F59004E
:104A0000E6FF3600250037000060FE004E489000AB
:104A100032E0B7005E0090001000BA004007980036
:104A20004E009000604798006E4090000080FB00B0
:104A30001E0F40004E0090004880DE006047980046
:104A40006E4090000080FB001E0F40005E00900052
:104A50001080BA00400798004E0090006047980010
:104A60006E4090000080FB001E0F40005E00900032
:104A7000EE00900062004000E0804800500798007F
:104A8000610798001E009000AE0090006200400098
:104A9000E080480010079800210798001E01900050
:104AA000AE019000D07F2A0001002000800F51004D
:104AB000818F5900D4FF36004E48900032E0B70095
:104AC0005E0090001000BA0080438800F10F2000C3
:104AD0001E8F4000F10F20001E8F4000F10F2000BC
:104AE0001E8F40005E009000EE00900062004000CB
:104AF000E080480050079800610798001E00900071
:104B0000AE00900062004000E0804800100798006E
:104B100021079800130037000060FE00F10F20000D
:104B20001E8F4000F10F20001E8F4000F10F20006B
:104B30001E8F40005E009000EE009000620040007A
:104B4000E080480050079800610798001E00900020
:104B5000AE00900062004000E0804800100798001E
:104B6000210798001E019000AE019000E0BF2A00CE
:104B700001002000800F5100818F5900E6FF3600B0
:104B800000002000810F2000500798006107980066
:104B90004E48900032E0B7005E0090001000BA006E
:104BA000400798004E0090006F006000400798009A
:104BB0004E009000604798006E4090000080FB001F
:104BC0001E0F400040002000810F20005007980079
:104BD000610798004E48900032E0B7005E009000F8
:104BE0001000BA00400798004E0090006700600077
:104BF000400798004E009000604798006E4090007B
:104C00000080FB001E0F400060002000810F20008C
:104C100050079800610798004E48900032E0B700B6
:104C20005E0090001000BA0040079800CE0090008F
:104C30007008200000806000400798004E0090003F
:104C4000604798006E4090000080FB001E0F4000FF
:104C500080002000810F2000500798006107980015
:104C60004E48900032E0B7005E0090001000BA009D
:104C700040079800CE009000700C2000008060007B
:104C8000400798004E009000604798006E409000EA
:104C90000080FB001E0F4000A0002000810F2000BC
:104CA00050079800610798004E48900032E0B70026
:104CB0005E0090001000BA0040079800CE009000FF
:104CC000F00D200000806000400798004E0090002A
:104CD000604798006E4090000080FB001E0F40006F
:104CE000C0002000810F2000500798006107980045
:104CF0004E48900032E0B7005E0090001000BA000D
:104D000040079800CE0090007006200000806000F0
:104D1000400798004E009000604798006E40900059
:104D20000080FB001E0F4000E0002000810F2000EB
:104D300050079800610798004E48900032E0B70095
:104D40005E0090001000BA0040079800CE0090006E
:104D5000300E200000806000400798004E00900058
:104D6000604798006E4090000080FB001E0F4000DE
:104D700000012000810F2000500798006107980073
:104D80004E48900032E0B7005E0090001000BA007C
:104D900040079800CE009000F003200000806000E3
:104DA000400798004E009000604798006E409000C9
:104DB0000080FB001E0F40009E00780071438800B9
:104DC0006E4090000080FA00000006000000FA002B
:104DD000100280000050A1000060A1000070A1003E
:104DE000100288000421EF002005800000C0A1000F
:104DF00000D0A00000E0A000200588008460A90089
:104E00009460A8000021EF00F0F92000100888004D
:104E100005E1A8001021EF00800880000040A000FC
:104E20000050A000800888003005800000C0A0006D
:104E300000D0A00000E0A0003005880084E0A900B8
:104E400094E0A8000621EF001221EF0090088000F6
:104E50000040A0000050A00090088800400580009D
:104E60000000A0000010A0000020A0004005880065
:104E70008500A9009500A8000A21EF001E21EF007F
:104E8000F00880000040A1000050A000F008880059
:104E90008005800000C0A10000D0A00000E0A000BC
:104EA000800588008760A9009760A800803E2000E8
:104EB000D00888001421EF002021EF009005800029
:104EC0000000A0000010A0000020A10090058800B4
:104ED0008780A9009780A9001821EF008002200098
:104EE000E0088800C222EF00C422EF00C002A80040
:104EF000C022A800C042A900C442A900C062A90003
:104F0000C462A900C082A900C482A900C0A2A900ED
:104F1000C4A2A900C0E2A900C4E2A800C122A9005D
:104F2000C522A900C142A900C542A900C1E2A90049
:104F3000C5E2A900CA22EF00CC22EF00C8C2A90036
:104F4000C8E2A900C982A900CD82A900C9A2A9000E
:104F5000CDA2A900C9C2A900CDC2A900C9E2A90079
:104F6000CDE2A900D222EF00D422EF00D062A90046
:104F7000D462A900D1A2A900DD62A900D1C2A80013
:104F8000DA22EF00DC22EF00D802A900DC02A80040
:104F9000D822A800D842A800D882A900DC82A800A4
:104FA000D902A900DD02A800D922A900DD22A800AB
:104FB000D942A900DD42A900D962A900DD62A8009A
:104FC000D9A2A900DDA2A800D9C2A900DDC2A9000A
:104FD000D9E2A900DDE2A900E222EF00E422EF001D
:104FE000E002A900E022A900E422A900E062A900F1
:104FF000E462A800E082A900E0A2A800E0E2A80024
:10500000EA22EF00EC22EF00E822A900EC22A9003E
:10501000E842A800E862A900F222EF00F422EF00C3
:10502000F002A900F402A900F022A900F422A900CC
:10503000F042A900F442A800F062A900F462A800BE
:10504000F0C2A800F102A900F502A800F122A9000F
:10505000F522A800F1E2A900F5E2A90021E2A900E9
:1050600021A2A9002182A9002162A80000118000CC
:105070000080A1000090A1000011880020E2A9009A
:1050800020C2A90020A2A9002082A9002062A900B4
:10509000001180000010A1000020A1000011880074
:1050A0002002A900500120004011880023E2A9003D
:1050B00023C2A90023A2A9002362A9002342A900B8
:1050C0002322A9002302A900101180000060A10082
:1050D0000070A1001011880022A2A9002282A9005C
:1050E0002262A9002242A9002222A9002202A900CC
:1050F0004005800000C0A00000D0A10000E0A0009A
:1051000040058800500580000000A0000010A100AC
:105110000020A000500588008580A9009580A80087
:105120008560A9009560A80021E2A8002342A8009C
:10513000C09F200051C5B30001487800D09F2000D7
:1051400001C1B30001487800E09F200001C9B3000D
:1051500001487800F09F20008040EB000148780073
:1051600000A0200080C0EB0001487800D09F200004
:1051700090407800E09F20001040780080C0400000
:10518000F09F20001040780080C0400000A0200068
:105190001040780080C0400010A020000148780036
:1051A00010002200001C880070002000501C8800A5
:1051B000A0002000101C880080242000401C8800D3
:1051C000003E2000201C8800300580000000A10067
:1051D0000010A1000020A000300588008480A900F4
:1051E0009480A80081E3A80010002000601C8800C3
:1051F00070002000B01C8800A0002000701C8800F7
:1052000080242000A01C8800003F2000801C880013
:10521000500580000080A1000090A10000A0A00027
:105220005005880085C0A90095C0A8008DE3A8009E
:105230009540A9004382A9004362A9004342A80007
:105240004322A9004302A90042E2A90042C2A800E9
:1052500042A2A800101280000020A0000030A00090
:105260000040A10010128800101280000000A10070
:105270000010A0001012880041E2A8004005800044
:105280000080A1000090A00000A0A00040058800C0
:105290008540A9009540A900102080000000A100D1
:1052A0000010A0000020A000102088002124A800E9
:1052B000002180000060A1000070A0000021880093
:1052C0002104A9004006200040218800400620005B
:1052D000802188001021800000A0A00000B0A00064
:1052E0001021880023E4A90023C4A9002003200082
:1052F0003021880020032000702188004124A8006C
:10530000002280000060A1000070A0000022880040
:1053100080912700402288001022800000A0A00079
:1053200000B0A0001022880043E4A90043A4A80014
:10533000000E26003022880043E4A80001E4A80003
:105340000103A90000E3A80000C3A90000A3A9006D
:105350000083A8000183A900001880000000A000BD
:105360000010A1000020A000001888005118800043
:1053700000FE2F00008060000000A0005018880090
:1053800051188000F00F2E00808060000010200077
:1053900001007000501888006118800000FE2F0086
:1053A000008060000000A000601888000203A900CF
:1053B0000223A9000243A9000263A9000283A900F5
:1053C00002A3A900D00680000080A1000090A100E7
:1053D00000A0A000D006880091C0A900A1C0A8002C
:1053E000D006800000C0A10000D0A10000E0A00015
:1053F000D006880091E0A900A1E0A800E0068000A6
:105400000000A1000010A1000020A000E00688001C
:105410009200A900A200A80001E3A8000080FA0001
:10542000000006000400FA001007980041128000F6
:10543000010F78009E0090004112880000000000DB
:1054400000128000610060000000E000FCFF3200FC
:1054500041128000010F78001E0078000080FA00E1
:10546000000006000000FA001011800062006000D9
:105470000000E000020032002222A900DC68EF00F8
:1054800090468000620060000000E0001A003200D8
:1054900000478000E60F500017003600D228A90010
:1054A000DD68EF0000000000DCC8BF000004E00081
:1054B000FDFF3A00000000002116800000022000DD
:1054C000008060000000E000FBFF3A00C4A2A800DA
:1054D000000000001111800000102000008060001A
:1054E0000000E000FBFF3200C09F20001040780069
:1054F0000080FB0020118800904680006100600061
:105500000000E00015003200DC68EF00D208A900BE
:1055100020902000104078006640400042000700C4
:1055200021902000914078008180FB00E7804000BE
:10553000C28F2000E2C07800814F500005003A0081
:1055400030902000104078000080FB004F000700E2
:1055500002003700400120004C0007000080FA00E4
:10556000000006000200FA00881F7800004F780053
:1055700011479800E028EF001E80FB006800400003
:10558000F046880020A020001E48780030A02000AF
:105590009E409000014878001E80FB006704400098
:1055A0009E40780066C0400006000700C19F2000B2
:1055B00080707C00D228A8004F0478000080FA0098
:1055C000000006000600FA00404798000040EB008B
:1055D000004F780060002000100798000800370096
:1055E000C19F20001E009000008040001040780005
:1055F0001E4F40001E0090000000E80010079800B9
:105600004E4090000080FB000000E8008000780021
:105610001E009000808F5000F1FF3E001E40780079
:105620000080FA00000006000600FA0040479800DB
:105630000040EB00004F7800600020001007980049
:1056400008003700C18F20001E009000008040003D
:10565000104078001E4F40001E0090000000E8003F
:10566000100798004E4090000080FB000000E8000A
:10567000800078001E009000808F5000F1FF3E00F7
:105680001E4078000080FA00000006000400FA00C6
:10569000889FBE00100798001E0090005102200055
:1056A000810F5000C901320051022000810F5000CB
:1056B0000F003E00E40F5000BC003200E40F500029
:1056C00005003E00E10F500020003200E20F5000C4
:1056D0000F0232001B023700E50F5000A600320017
:1056E00001022000810F5000F70032001502370040
:1056F00071042000810F5000C900320071042000A5
:10570000810F500007003E0021032000810F500050
:10571000F800320041042000810F50005C0032008C
:105720000802370051052000810F5000720032003E
:10573000C10C2000810F5000B6013200810420000E
:10574000810F5000D5003200FE0137003043800049
:105750008040780040A0200001487800A08520000B
:105760005001BE004000BE004818DE0080407800B6
:1057700050A0200001487800A08520005001BE0004
:105780004000BE00030078008040780060A0200048
:1057900001487800A08520005001BE004000BE00F6
:1057A0004810DE00481ADD000000720080407800DA
:1057B00070A0200001487800A08520005001BE00A4
:1057C0004000BE00020078008040780080A02000E9
:1057D00001487800A08520005001BE004000BE00B6
:1057E0004808DE004812DD000000720080407800AA
:1057F00090A0200001487800A08520005001BE0044
:105800004000BE000100780080407800A0A0200089
:1058100001487800A08520005001BE004000BE0075
:105820004800DE00480ADD00000072008040780079
:10583000B0A0200001487800A08520005001BE00E3
:105840004000BE0080407800C0A0200001487800E1
:10585000B045800080407800D0A02000014878004A
:10586000B046800080407800E0A020000148780029
:10587000A042800080407800F0A02000014878001D
:1058800031C3B300D0C0B30036FF0700B00137000A
:1058900050902000104078000080FB0020478800D6
:1058A000204780004800DD002047880060902000ED
:1058B000104078008080FB0020478000008040007E
:1058C000204788005288A8004090200010407800AF
:1058D0000004E000020032005248A8000200370035
:1058E0005248A900E428EF0011C4B30010C0B3006F
:1058F0001CFF07009601370011C4B30010C0B300AD
:1059000018FF07000000000000478000E30F500070
:10591000FDFF3600D228A90000000000DCC8BF004F
:105920000004E000FDFF3A000000000021168000A6
:1059300000022000008060000000E000FBFF3A0051
:10594000C4A2A8002342A800C09F200010407800F5
:105950000080FB002011880000000000211680005C
:1059600000022000008060000000E000FBFF3A0021
:105970000000FE007601370040A0200011C0B300F7
:105980000148780050A0200011C0B3000148780001
:1059900060A0200001C3B3000148780001C5B30036
:1059A00040C0B300EFFE070069013700B046800039
:1059B000EF0F500005003A00409020009040780022
:1059C00050C5B30080CF500009003A00409020003D
:1059D000104078000080FB00C04788005308A800F2
:1059E00011C4B30010C0B300DEFE07005801370039
:1059F000B0468000EF0F500005003200F00020009C
:105A0000C047880050012000A04288005308A80029
:105A100041C1B30010C0B300D2FE07004C013700F3
:105A200050902000104078000080FB00104088005B
:105A3000104080004800DD00104088006090200089
:105A4000104078008080FB00104080000080400003
:105A5000104088001140800000CF2300808F50004C
:105A60000200360000CF230010408800D428A80090
:105A700040902000104078000004E0000200320056
:105A80005208A800010037005208A90011C4B30051
:105A900010C0B300B3FE07002D0137004090200076
:105AA000104078000004E0000200320053E8A80033
:105AB0000100370053E8A90011C4B30010C0B300BF
:105AC000A8FE070022013700409020001040780017
:105AD0000004E000020032005368A8000100370013
:105AE0005368A90011C4B30010C0B3009DFE0700A5
:105AF000170137004090200010407800E14F40002F
:105B0000AE003200709020009040780050C9B30081
:105B100080CF5000A9003E00409020001040780047
:105B20000080FB00C0468800C04680004800DD00C1
:105B3000C046880050902000104078008080FB0014
:105B4000C046800000804000C04688006090200071
:105B5000104078000080FB00D0468800D0468000CE
:105B60004800DD00D046880070902000104078008A
:105B70008080FB00D046800000804000D046880036
:105B8000D04680000000E00006003200D1468000D0
:105B9000C046800000805000D0468800D448A8004D
:105BA00003003700D448A900803E2000D04688007A
:105BB000C04680008000EB00027122000289B9001B
:105BC000020178006002B9008401780003014100FD
:105BD000037122000300B800010141008200780037
:105BE0004A09DD004600DE0000007100C608DE0044
:105BF00000007800C0468800C04680000009B1005F
:105C0000C046880080902000104078000080FB0093
:105C1000B0428800B04280004800DD00B0428800F9
:105C200090902000104078008080FB00B0428000FF
:105C300000804000B0428800A09020001040780012
:105C40000080FB00C0428800C04280004800DD00A8
:105C5000C0428800B0902000104078008080FB0097
:105C6000C042800000804000C0428800C0428000E6
:105C70008000EB00027122000289B9000201780065
:105C80006002B90084017800030141000371220021
:105C90000300B80001014100820078004A0ADD00DB
:105CA0004600DE0000007200C608DE00000078003A
:105CB000C0428800B04280008000EB0002712200E8
:105CC0000289B900020178006002B90084017800FD
:105CD00003014100037122000300B80001014100EB
:105CE000820078004A09DD004600DE0000007100F5
:105CF000C608DE0000007800B0428800B042800094
:105D00000009B100B0428800C09020001040780027
:105D10000080FB007046880053A8A800D0902000A7
:105D2000104078000080FB00F045880011C4B300EB
:105D300010C0B3000BFE0700704680008000EB002F
:105D400041F407000004BE00704680008000EB00B4
:105D50003DF40700A299290093E923008FF407007E
:105D60000001BE000800BE0058F307001BF4070046
:105D70000000780000448800704680008000EB003E
:105D800031F407000004BE00704680008000EB0084
:105D90002DF40700A299290093E923007FF407005E
:105DA0000001BE000800BE0047F307000BF4070027
:105DB00000007800104488006500370041C1B3003E
:105DC00010C0B300E7FD0700610037000040EB00A2
:105DD000004F7800080037001E80FB00680040007C
:105DE0009E80FB00C2B7200062C17800C19F2000E6
:105DF000827078001E4FE8001E407800FF4F500070
:105E0000F5FF360021C5B30010C2B300D5FD070071
:105E10004F003700B04580008040780040A020004F
:105E200001487800101680000000D1006140600039
:105E30008040780050A02000014878009017800032
:105E40004600DE00614060008040780060A02000D5
:105E500001487800101780004700DE0061406000B4
:105E60008040780070A02000014878001016800063
:105E700000407800614060008040780080A02000F1
:105E800001487800A0478000B1478000B2F30700C6
:105E9000004078008040780090A020000148780001
:105EA0000046800011468000ABF3070000407800F8
:105EB00080407800A0A0200001487800A146800022
:105EC00000022000008060000000E00009003200B5
:105ED000A146800000042000008060000000E00077
:105EE00004003200B0A0200011C0B30001487800C7
:105EF00003003700B0A020008040EB00014878008C
:105F0000D1CCB30090C0B30096FD0700100037005D
:105F1000704380004880DE008040780040A0200070
:105F200001487800704380008040780050A0200035
:105F30000148780021C1B30030C0B30089FD0700DB
:105F40000300370041C1B30010C0B30085FD070056
:105F50004F04BE000080FA00000006000000FA00B6
:105F60001000070027070700C20607008107070087
:105F700078F50700330507005A080700E30007001B
:105F800038010700AA02070064090700FE0907009C
:105F90004D0A07002E0A0700990107000080FA0049
:105FA000000006000000FA0091428000001020006E
:105FB000008060000000E000C4003200C0478000A4
:105FC000F00F500016003200F00F500005003E00A8
:105FD000E10F500050003200EF0F50005600320029
:105FE000B700370001022000810F50000600320088
:105FF00051052000810F50004B003200F50F50007A
:1060000014003200AE003700B0468000E10F5000AF
:10601000A4003A00B0468000C0478800A8003700BE
:106020005248A8000000200001172400B04088005A
:10603000C1408800C5E2A8005208A8005288A80004
:10604000401F20002047880053C8A9005368A900BA
:106050009B003700A0468000700060000000E00058
:10606000280032005288A80080392000204788008C
:10607000F0458000F90F500005003A0000002000B4
:10608000010E2400B0408800C14088001A0037008B
:10609000F145800020032000808F500005003A0069
:1060A00000002000010A2400B0408800C1408800A0
:1060B00011003700F1458000B0042000808F5000AF
:1060C00005003A000000200001042400B0408800D0
:1060D000C140880008003700F145800040062000DC
:1060E000808F500004003A000000200001F82300D7
:1060F000B0408800C14088005368A80053C8A80079
:106100006F003700B0468000C0478800D488A900DF
:10611000D548A9006A0037006E0007005248A90060
:106120005268A900660037006A0007005248A900BB
:106130005268A9006200370066000700B14680007F
:10614000C0478000808F500058003200A04280007D
:106150006101B800B0FE2F00F1FF2F0002004000E7
:10616000838048008201200003002000820F50003D
:10617000838F58004F003E0000600100460037004A
:10618000460037004D003700310037004B00370024
:10619000190037001E003700110037004700370094
:1061A0001E0037004500370010003700430037005D
:1061B0004200370013003700400037001800370056
:1061C0002C003700190037003C0037001A00370058
:1061D0001C00370026003700380037002600370043
:1061E0005248A9005268A9002D0037005248A90062
:1061F0005268A9002A0037005248A9005268A90035
:10620000270037005248A9005268A900240037002F
:106210005248A9005268A900210037002000370029
:106220005248A9005268A9001D0037005248A90031
:106230005268A9001A0037005248A9005268A90004
:10624000170037005248A9005268A900140037000F
:106250000000200001172400B0408800C1408800E1
:106260005288A800401F2000204788000C003700FB
:106270000B0037000A00370000002000011724003F
:10628000B0408800C14088005288A800401F20000C
:10629000204788000200370001003700000000009E
:1062A0000700370000000000050037000000000074
:1062B000030037000000000001003700000000006C
:1062C000C0478000B04688005308A9000080FA004B
:1062D000000006000000FA00F5E2A900DC82A80038
:1062E00023E4A90011E1A9001FE1A900F522A800FB
:1062F0005388A9005368A90053C8A900C5E2A900A2
:106300005208A9000080FA00000006000000FA0010
:10631000881F7800A0438000E20F50001800320070
:10632000E20F500005003E000000E00008003200CF
:10633000E10F50000C00320047003700E30F50001F
:1063400020003200E40F50003400320042003700D9
:10635000B0468000F00F500036003A0010002000D8
:10636000A04388003C003700B0468000F50F500085
:1063700032003A0020002000A04388003600370099
:1063800090428000680060000000E00008003200D9
:106390009142800000002100008060000000E000C9
:1063A0000300320030002000A04388002A0037009C
:1063B000B0468000F50F5000220032007428EF0034
:1063C00025003700004680001146800018C0B30049
:1063D00002002000031524005BF207000000E0002B
:1063E000010035000044EB000804E0000600320024
:1063F00000022000C04788005308A8004000200089
:10640000A043880014003700B0468000F50F50000C
:106410000E0032007428EF000F003700B1468000F4
:1064200000022000808F50000A0032007428EF0024
:1064300009003700000000000700370000000000DE
:1064400005003700000000000300370000000000D6
:1064500001003700000000004F0478000080FA00BF
:10646000000006000000FA00B14680000002200093
:10647000808F500055003A0090438000E30F500099
:106480003E003200E30F500003003E00E10F5000D9
:106490002300320058003700E40F5000450032005E
:1064A000E70F50004D003A00B04580000000E000CA
:1064B0001700320052E8A800C442A80023E4A80054
:1064C000CD82A800C0468000600888000621EF0049
:1064D000B04280000000E00003003200B0428000C3
:1064E000700888000A21EF0084E0A90011E1A800EB
:1064F0008500A90013E1A8001421EF008760A9001E
:106500001FE1A80010002000904388003A003700E7
:1065100023E4A900E422A900C442A9003600370000
:106520009142800000082000008060000000E00030
:1065300004003A00C442A9003000200090438800C3
:106540002D003700A1468000001020000080600070
:106550000000E0002300320000022000A04288007A
:106560005308A800F0002000C04788006000200009
:1065700090438800C442A9001F003700B143800047
:10658000D0468000808F500018003900A04680005F
:10659000640060000000E000030032007000200092
:1065A000904388001400370040002000904388008A
:1065B00011003700B04580000000E0000D003A00F7
:1065C00070002000904388000B00370052E8A900BB
:1065D0007000200090438800070037000000000092
:1065E0000500370000000000030037000000000035
:1065F00001003700000000000080FA0000000600E3
:106600000400FA000000EB0010079800904680009C
:10661000640060000000E000B3003200C04380006E
:10662000E10F50000D003200E10F5000030039006F
:10663000E20F5000400032009E00370081E3A800C6
:106640008DE3A800F442A800F502A90083E3A800A6
:10665000D248A9009540A800A000370091428000D0
:1066600000082000008060000000E0001D003200F3
:106670000000EB00000F7800140037001E007800C7
:106680008000400000BF2200008040001000780021
:106690008000D1001E0078000001400000BF2200F1
:1066A00000004100010878001E00780080004000D2
:1066B00000BF220000804000100078009E00900083
:1066C00000804000100798001E0FE8001E007800B0
:1066D000E70F5000E9FF36001E0090004300DE0087
:1066E000404388000000EB00000F780007003700EF
:1066F0001E0078008000400000BE220000804000A4
:1067000001002E00010878001E0FE8001E0078002E
:10671000E70F5000F6FF36009540A80081E3A8007F
:106720008DE3A800F442A800F502A90083E3A800C5
:10673000D248A9006900370091428000000820007B
:10674000008060000000E0004B003A000000EB0019
:10675000000F7800280037001E00780080004000FD
:1067600000BF220000804000100078008000D100AF
:106770001E0078000001400000BF22000000410020
:10678000010878001E0078008000400000BF220051
:106790000080400090007800803E2000808F5000F4
:1067A00007003E001E0078008000400000BF22006D
:1067B00000804000100078000000E00005003A0072
:1067C000204480009E009000008040001007980048
:1067D000080037001E0078008000400000BF220043
:1067E00000804000100078009E0090000080400073
:1067F000100798001E0FE8001E007800E70F5000F9
:10680000D5FF36001E0090004300DE001007980000
:106810009E009000214488009E009000000320000C
:106820000088B900000078008000EB005043880029
:10683000614388005043800061438000B25E2000C5
:106840000289B900020178006002B9008401780071
:1068500003014100B35E20000300B80001014100C4
:1068600082007800029F240023002000FFF107002F
:1068700050438800614388000000EB00000F78005F
:10688000070037001E0078008000400000BE220094
:106890000080400001002C00010878001E0FE80075
:1068A0001E007800E70F5000F6FF3600A228EF0028
:1068B0000A00370011458000D0478000808F5000CB
:1068C000030036000080EB00C0438800030037005F
:1068D00070002000C043880000000000C04380001A
:1068E0000000E800C0438800A146800000082000A6
:1068F000008060000000E0004B003200D4E8A900F6
:10690000AA28EF007A28EF000000EB00000F7800C3
:10691000090037001E0078008000400040BC2000C5
:106920000080400090007800D0438000008040004C
:10693000D04388001E0FE8001E007800E40F5000CE
:10694000F4FF3600D14380005000200000017800A1
:10695000110009008280D800D0438800D043800015
:106960000120200000805000D0438800D1438000E7
:10697000201420000088B900800078004029200001
:1069800000017800110009008280D800D0438800FF
:106990007C28EF000000EB00000F780009003700B2
:1069A0001E00780080004000E0BC20000080400015
:1069B00090007800E043800000804000E0438800C1
:1069C0001E0FE8001E007800E40F5000F4FF3600B0
:1069D000E143800050002000000178001100090010
:1069E0008280D800E0438800E0438000E01FB100CF
:1069F000E0438800E1438000201420000088B900B3
:106A00008000780040292000000178001100090072
:106A10008280D800E0438800D1438000E0438000BA
:106A200000804000F04388000080FA00000006006B
:106A30000C00FA00889FBE0000408000E50F500067
:106A400099003A000028EF006000B8002046880056
:106A500031468800115F800011079800115F8000A7
:106A6000210798000000EB00300798000000EB00C1
:106A7000400798000000EB00000F7800210037006D
:106A80001E0078008000400020BE200000804000F2
:106A9000900078002E009000808F50000800360093
:106AA0009E007800410798001E007800800040009A
:106AB00020BE200000804000900078002107980050
:106AC0001E0078008000400020BE200000804000B2
:106AD000900078001E009000808F50000800310068
:106AE0009E007800310798001E007800800040006A
:106AF00020BE200000804000900078001107980020
:106B00001E0FE8001E007800E40F5000DCFF360086
:106B10000000EB00500798000000EB00000F780029
:106B20001B0037004E0090009E007800808F5000C0
:106B3000160032003E0090009E007800808F5000CA
:106B4000120032001E0078008000400020BE2000AD
:106B500000804000100078008000EB00BAF00700D1
:106B60000002BE0020468000314680000001BE00C9
:106B70000400BE00D5EF070020468800314688009B
:106B80005E0090000000E800500798001E0FE8002B
:106B90001E007800E40F5000E2FF36002846800017
:106BA000394680005E0090008000EB00A6F00700F0
:106BB0000001BE000800BE0021F00700D2CC2C006E
:106BC000C3042400F5F007003040880041408800ED
:106BD000304080004140800002002000431A240021
:106BE000EEF007000004BE0030408000414080000D
:106BF0000001BE0000002C00F1582400B2EF070095
:106C000002002000A34724000DF007000001BE0091
:106C10000800BE000AF007002046880031468800C0
:106C2000204680003146800018C0B30002602B006F
:106C3000D37F240044F007000000E000010035008D
:106C40000044EB000804E000100032002046800001
:106C50003146800018C0B30002002800834224009F
:106C60003BF007000000E00001003C000044EB00A6
:106C70000804E000050032007C010700004688009F
:106C80001146880052C8A80007003700E002200023
:106C9000A04288005308A800F0002000C0478800E8
:106CA0004000200020408800A04680006200600074
:106CB0000000E0000F003200104080008000EB0078
:106CC00061F0070002002000A3472400DCEF07006A
:106CD0002901070090428000610060000000E00090
:106CE00002003200C5E2A80001003700C5E2A90099
:106CF000D428A90090428000610060000000E000FC
:106D000001003A000428EF0020408000E20F50000C
:106D100025003200E20F500005003E000000E000B8
:106D200008003200E10F50001400320093003700D9
:106D3000E30F500043003200E40F500077003200B0
:106D40008E0037003033230031F3230010418800D8
:106D500021418800D0CC2C00C1DC230030418800C8
:106D6000414188006000B8005041880061418800BE
:106D700010002000204088008000370090428000F2
:106D8000610060000000E0007500320010408000EB
:106D90000000E00074003A00C5E2A80020002000D6
:106DA00020408800750037009142800000042000D8
:106DB000008060000000E0006D00320052C8A900B1
:106DC000004680001146800018C0B3000200200079
:106DD00043212400DEEF07000000E00001003C003A
:106DE0000044EB000804E0000B003A00004680007D
:106DF0001146800018C0B30032332300330E2C003C
:106E0000D1EF07000000E000010035000044EB0076
:106E10000804E00008003200D0022000A0428800F0
:106E20005308A800F0002000C04788004000200060
:106E300020408800510037003000200020408800AA
:106E40004E00370090428000610060000000E000CA
:106E50002E003200004680001146800070408800FD
:106E6000814088006E00070090408000A1408000B3
:106E700018C0B3000200200003042C00B2EF07008A
:106E80000000E000010035000044EB000804E000D1
:106E90001800320090408000A140800001F0A20064
:106EA00030408800414088003040800041408000F0
:106EB00018C0B300A299290093172400A4EF07007B
:106EC0000000E00001003C000044EB000804E0008A
:106ED00004003200A0992900911724003040880056
:106EE000414088003040800041408000A2000700FF
:106EF00001003700C5E2A900D468A80020002000E6
:106F000020408800000000001C003700C5E2A900F6
:106F10005208A9000428EF0018003700004680003E
:106F20001146800018C0B30002002000C3202400D6
:106F300085EF07000000E000010035000044EB0091
:106F40000804E0000C0032005308A80000012000F3
:106F5000C04788005428EF000428EF0007003700DE
:106F600000000000050037000000000003003700AB
:106F700000000000010037000000000041458000D3
:106F8000C0122000808F500022003600A828EF0099
:106F90000000000090468000640060000000E000F7
:106FA000FCFF3200DD42A800DD22A90000002C0019
:106FB0001CF90700000F78001E0078000000D100C7
:106FC000000F7800804180001E0040000000D100CA
:106FD00080418800DD22A800DD42A900DD42A80032
:106FE000DD22A90000002E000EF90700000F780036
:106FF0001E0078000000D100000F78007041800072
:107000001E0040000000D10070418800DD22A80071
:10701000DD42A9004F04BE000080FA000000060017
:107020000800FA00889FBE00B4408000C540800080
:1070300070408000814080000001BE000400BE005E
:10704000A1EE0700008FBE00D0408000E14080002C
:107050001E01BE009DEE0700D0408800E140880080
:10706000D0408000E140800018C0B3000200200042
:10707000032F240036EF07000000E00001003C0071
:107080000044EB000804E00005003200000020008E
:10709000012F2400D0408800E14088000F00370015
:1070A000D0408000E140800018C0B3000200200002
:1070B000032F2C0024EF07000000E0000100350042
:1070C0000044EB000804E00004003200000020004F
:1070D000012F2C00D0408800E1408800F040800063
:1070E000014180000001BE001E00BE0076EE0700D8
:1070F000200798003107980010418000214180004E
:107100001E01BE00A5EF07000004BE003441800050
:1071100045418000D0408000E14080000001BE0079
:107120000400BE009DEF07000001BE000800BE0085
:1071300066EE07000004BE005041800061418000FF
:107140002E019000BE01900094EF07000001BE00E8
:107150000800BE005DEE070090408800A140880056
:107160001E01BE00F2408800034188004F04BE00AB
:107170000080FA00000006000600FA00881F780070
:1071800010079800210798001E019000AE019000A2
:10719000F0512800D11A24004BEE0700E24F2D00D9
:1071A00003082400A6EE070082862E00F3B9230010
:1071B000A3EE0700100798002107980018C0B3003D
:1071C00002002C00F34724001E009000AE00900047
:1071D000DFEE07000000E00001003C000044EB008F
:1071E0000804E0000400320000002C00F1472400F5
:1071F00010079800210798001E009000AE00900034
:10720000D5EE070000007800000F78001E0078001F
:107210004200DD00000F7800000021001E0F40003A
:107220000000000090468000640060000000E00064
:10723000FCFF3200DD42A800DD02A9001E0078003C
:1072400078F80700DD02A800DD42A9009042800026
:10725000610060000000E00001003200C5E2A8000B
:107260004F0478000080FA00000006000E00FA00CB
:10727000889FBE000000EB002007980069003700DF
:107280002E0090004300DD00E4004000A08E2900A5
:10729000008040001002BE00204680003146800081
:1072A0000001BE000400BE00A7EE07000000E000E1
:1072B00007003A002E009000C300DD00A08E2900D8
:1072C00000804000301F78002017780059003700F8
:1072D0002E0090004300DD00E4004000A08E290055
:1072E000008040001002BE00204680003146800031
:1072F00018C0B3000001BE000400BE0092EE0700FB
:107300000000E000010035000044EB000804E0004C
:10731000410032002E0090000000E9004300DD0033
:10732000E4004000A08E2900008040001002BE0052
:107330002E0090004300DD00E4004000A08E2900F4
:10734000008040001000BE000001BE000400BE002E
:10735000DDED07000004BE002E0090000000E900F3
:10736000C300DD00A08E2900008040001002BE0096
:107370002E009000C300DD00A08E29000080400098
:107380001000BE000001BE000400BE00CEED0700EC
:107390000001BE000800BE0029EE0700300798007B
:1073A000410798002E0090004300DD00E4004000FB
:1073B000A08E2900008040001004BE002E00900026
:1073C000C300DD00A08E2900008040001000BE0038
:1073D0003E019000CE019000F0EE07000001BE00DB
:1073E0000800BE00B8ED070050079800610798003C
:1073F00020468000314680005E019000EE01900042
:10740000B1ED07003E019000CE0190000CEE0700A8
:10741000008FBE00070037002E0090000000E8003B
:1074200020079800AE00900070032000808F50006D
:1074300093FF36001E00BE004F04BE000080FA001D
:10744000000006001000FA00889FBE00714780000F
:10745000803E2000808F500002003600EE28EF00B2
:107460000AA3A80060478000E50F50006B003A00B7
:10747000EC28EF006000B800A0478800B147880002
:10748000615F800011079800615F8000210798000C
:107490000000EB00300798000000EB004007980068
:1074A0000000EB00000F7800210037001E0078007C
:1074B00080004000C0BE20000080400090007800A6
:1074C0002E009000808F5000080036009E0078004B
:1074D000410798001E00780080004000C0BE2000D8
:1074E0000080400090007800210798001E0078007E
:1074F00080004000C0BE2000008040009000780066
:107500001E009000808F5000080031009E0078001F
:10751000310798001E00780080004000C0BE2000A7
:107520000080400090007800110798001E0FE800CE
:107530001E007800E40F5000DCFF36000000EB0076
:10754000500798000000EB00000F78001B00370088
:107550004E0090009E007800808F50001600320090
:107560003E0090009E007800808F50001200320094
:107570001E00780080004000C0BE20000080400057
:10758000100078008000EB002FEE07000002BE0024
:10759000A0478000B14780000001BE000400BE008B
:1075A0004AED0700A0478800B14788005E009000C0
:1075B0000000E800500798001E0FE8001E00780049
:1075C000E40F5000E2FF3600A8478000B947800072
:1075D0005E0090008000EB001BEE07000001BE0083
:1075E0000800BE0096ED070060079800710798003C
:1075F000D2CC2C00C30424006E009000FE0090004A
:1076000066EE070002002000031224008CED070044
:10761000A0478800B147880052A8A80050478000C2
:10762000E20F500017003200E20F500005003E004C
:107630000000E00006003200E10F500009003200B7
:1076400009013700E30F5000DD003200060137006A
:1076500080912700302288001000200050478800C9
:10766000010137009142800000022000008060008C
:107670000000E000F70032002000200050478800A2
:10768000F900370052A8A9001000200050478800D8
:10769000A0478000B147800018C0B3006011B80057
:1076A000ABED07000000E00001003D000044EB00EE
:1076B0000804E00013003200A0478000B1478000BA
:1076C00018C0B3000200200003F823009EED07005D
:1076D0000000E000010034000044EB000804E0007A
